{
  "contractName": "Arbitrage",
  "abi": [
    {
      "inputs": [
        {
          "internalType": "address",
          "name": "_balancer",
          "type": "address"
        },
        {
          "internalType": "address",
          "name": "_exchange",
          "type": "address"
        }
      ],
      "stateMutability": "nonpayable",
      "type": "constructor"
    },
    {
      "anonymous": false,
      "inputs": [
        {
          "indexed": true,
          "internalType": "address",
          "name": "from",
          "type": "address"
        },
        {
          "indexed": true,
          "internalType": "address",
          "name": "to",
          "type": "address"
        },
        {
          "indexed": false,
          "internalType": "uint256",
          "name": "amount",
          "type": "uint256"
        },
        {
          "indexed": false,
          "internalType": "uint256",
          "name": "minProfit",
          "type": "uint256"
        }
      ],
      "name": "TradeExecuted",
      "type": "event"
    },
    {
      "anonymous": false,
      "inputs": [
        {
          "indexed": true,
          "internalType": "address",
          "name": "from",
          "type": "address"
        },
        {
          "indexed": true,
          "internalType": "address",
          "name": "to",
          "type": "address"
        },
        {
          "indexed": false,
          "internalType": "uint256",
          "name": "amount",
          "type": "uint256"
        },
        {
          "indexed": false,
          "internalType": "uint256",
          "name": "minProfit",
          "type": "uint256"
        },
        {
          "indexed": false,
          "internalType": "bytes",
          "name": "error",
          "type": "bytes"
        }
      ],
      "name": "TradeExecutionFailed",
      "type": "event"
    },
    {
      "inputs": [],
      "name": "balancer",
      "outputs": [
        {
          "internalType": "contract IBalancer",
          "name": "",
          "type": "address"
        }
      ],
      "stateMutability": "view",
      "type": "function"
    },
    {
      "inputs": [],
      "name": "exchange",
      "outputs": [
        {
          "internalType": "contract IExchange",
          "name": "",
          "type": "address"
        }
      ],
      "stateMutability": "view",
      "type": "function"
    },
    {
      "stateMutability": "payable",
      "type": "receive"
    },
    {
      "inputs": [
        {
          "internalType": "address",
          "name": "_from",
          "type": "address"
        },
        {
          "internalType": "address",
          "name": "_to",
          "type": "address"
        },
        {
          "internalType": "uint256",
          "name": "_amount",
          "type": "uint256"
        },
        {
          "internalType": "uint256",
          "name": "_minProfit",
          "type": "uint256"
        }
      ],
      "name": "executeTrade",
      "outputs": [],
      "stateMutability": "nonpayable",
      "type": "function"
    },
    {
      "inputs": [
        {
          "internalType": "address",
          "name": "_from",
          "type": "address"
        },
        {
          "internalType": "address",
          "name": "_to",
          "type": "address"
        },
        {
          "internalType": "uint256",
          "name": "_amount",
          "type": "uint256"
        },
        {
          "internalType": "uint256",
          "name": "_minProfit",
          "type": "uint256"
        }
      ],
      "name": "onFlashLoan",
      "outputs": [],
      "stateMutability": "nonpayable",
      "type": "function"
    }
  ],
  "bytecode": "0x608060405234801561000f575f80fd5b50604051610cef380380610cef83398181016040528101906100319190610155565b335f806101000a81548173ffffffffffffffffffffffffffffffffffffffff021916908373ffffffffffffffffffffffffffffffffffffffff1602179055508160015f6101000a81548173ffffffffffffffffffffffffffffffffffffffff021916908373ffffffffffffffffffffffffffffffffffffffff1602179055508060025f6101000a81548173ffffffffffffffffffffffffffffffffffffffff021916908373ffffffffffffffffffffffffffffffffffffffff1602179055505050610193565b5f80fd5b5f73ffffffffffffffffffffffffffffffffffffffff82169050919050565b5f610124826100fb565b9050919050565b6101348161011a565b811461013e575f80fd5b50565b5f8151905061014f8161012b565b92915050565b5f806040838503121561016b5761016a6100f7565b5b5f61017885828601610141565b925050602061018985828601610141565b9150509250929050565b610b4f806101a05f395ff3fe608060405260043610610042575f3560e01c8063b90786161461004d578063d2f7265a14610075578063e563037e1461009f578063f3a78104146100c957610049565b3661004957005b5f80fd5b348015610058575f80fd5b50610073600480360381019061006e91906105d4565b6100f1565b005b348015610080575f80fd5b5061008961033f565b6040516100969190610693565b60405180910390f35b3480156100aa575f80fd5b506100b3610364565b6040516100c091906106cc565b60405180910390f35b3480156100d4575f80fd5b506100ef60048036038101906100ea91906105d4565b610389565b005b5f8054906101000a900473ffffffffffffffffffffffffffffffffffffffff1673ffffffffffffffffffffffffffffffffffffffff163373ffffffffffffffffffffffffffffffffffffffff161461017e576040517f08c379a00000000000000000000000000000000000000000000000000000000081526004016101759061073f565b60405180910390fd5b5f84848484604051602001610196949392919061077b565b604051602081830303815290604052905060015f9054906101000a900473ffffffffffffffffffffffffffffffffffffffff1673ffffffffffffffffffffffffffffffffffffffff1663e0232b423085846040518463ffffffff1660e01b815260040161020593929190610848565b5f604051808303815f87803b15801561021c575f80fd5b505af192505050801561022d575060015b6102d0573d805f811461025b576040519150601f19603f3d011682016040523d82523d5f602084013e610260565b606091505b508473ffffffffffffffffffffffffffffffffffffffff168673ffffffffffffffffffffffffffffffffffffffff167fea74bd44bcc8078bf9e6146664d02f27c39efb711ee31938a5ab9dba51fb577b8686856040516102c293929190610884565b60405180910390a350610338565b8373ffffffffffffffffffffffffffffffffffffffff168573ffffffffffffffffffffffffffffffffffffffff167f54424bcd37c121359634358c4b6124e821af711811c1ad2fb8f96b94b046338c858560405161032f9291906108c0565b60405180910390a35b5050505050565b60025f9054906101000a900473ffffffffffffffffffffffffffffffffffffffff1681565b60015f9054906101000a900473ffffffffffffffffffffffffffffffffffffffff1681565b5f4790505f60025f9054906101000a900473ffffffffffffffffffffffffffffffffffffffff1673ffffffffffffffffffffffffffffffffffffffff1663df791e508787876040518463ffffffff1660e01b81526004016103ec939291906108e7565b6020604051808303815f875af192505050801561042757506040513d601f19601f820116820180604052508101906104249190610930565b60015b610496573d805f8114610455576040519150601f19603f3d011682016040523d82523d5f602084013e61045a565b606091505b506040517f08c379a000000000000000000000000000000000000000000000000000000000815260040161048d906109a5565b60405180910390fd5b809150508284826104a791906109f0565b10156104e8576040517f08c379a00000000000000000000000000000000000000000000000000000000081526004016104df90610a6d565b60405180910390fd5b5f4790508383826104f991906109f0565b101561053a576040517f08c379a000000000000000000000000000000000000000000000000000000000815260040161053190610afb565b60405180910390fd5b50505050505050565b5f80fd5b5f73ffffffffffffffffffffffffffffffffffffffff82169050919050565b5f61057082610547565b9050919050565b61058081610566565b811461058a575f80fd5b50565b5f8135905061059b81610577565b92915050565b5f819050919050565b6105b3816105a1565b81146105bd575f80fd5b50565b5f813590506105ce816105aa565b92915050565b5f805f80608085870312156105ec576105eb610543565b5b5f6105f98782880161058d565b945050602061060a8782880161058d565b935050604061061b878288016105c0565b925050606061062c878288016105c0565b91505092959194509250565b5f819050919050565b5f61065b61065661065184610547565b610638565b610547565b9050919050565b5f61066c82610641565b9050919050565b5f61067d82610662565b9050919050565b61068d81610673565b82525050565b5f6020820190506106a65f830184610684565b92915050565b5f6106b682610662565b9050919050565b6106c6816106ac565b82525050565b5f6020820190506106df5f8301846106bd565b92915050565b5f82825260208201905092915050565b7f4f6e6c79206f776e65722063616e2065786563757465207472616465730000005f82015250565b5f610729601d836106e5565b9150610734826106f5565b602082019050919050565b5f6020820190508181035f8301526107568161071d565b9050919050565b61076681610566565b82525050565b610775816105a1565b82525050565b5f60808201905061078e5f83018761075d565b61079b602083018661075d565b6107a8604083018561076c565b6107b5606083018461076c565b95945050505050565b5f81519050919050565b5f82825260208201905092915050565b5f5b838110156107f55780820151818401526020810190506107da565b5f8484015250505050565b5f601f19601f8301169050919050565b5f61081a826107be565b61082481856107c8565b93506108348185602086016107d8565b61083d81610800565b840191505092915050565b5f60608201905061085b5f83018661075d565b610868602083018561076c565b818103604083015261087a8184610810565b9050949350505050565b5f6060820190506108975f83018661076c565b6108a4602083018561076c565b81810360408301526108b68184610810565b9050949350505050565b5f6040820190506108d35f83018561076c565b6108e0602083018461076c565b9392505050565b5f6060820190506108fa5f83018661075d565b610907602083018561075d565b610914604083018461076c565b949350505050565b5f8151905061092a816105aa565b92915050565b5f6020828403121561094557610944610543565b5b5f6109528482850161091c565b91505092915050565b7f53776170206661696c65640000000000000000000000000000000000000000005f82015250565b5f61098f600b836106e5565b915061099a8261095b565b602082019050919050565b5f6020820190508181035f8301526109bc81610983565b9050919050565b7f4e487b71000000000000000000000000000000000000000000000000000000005f52601160045260245ffd5b5f6109fa826105a1565b9150610a05836105a1565b9250828203905081811115610a1d57610a1c6109c3565b5b92915050565b7f50726f666974207468726573686f6c64206e6f74206d657400000000000000005f82015250565b5f610a576018836106e5565b9150610a6282610a23565b602082019050919050565b5f6020820190508181035f830152610a8481610a4b565b9050919050565b7f50726f666974207468726573686f6c64206e6f74206d657420616674657220745f8201527f7261646500000000000000000000000000000000000000000000000000000000602082015250565b5f610ae56024836106e5565b9150610af082610a8b565b604082019050919050565b5f6020820190508181035f830152610b1281610ad9565b905091905056fea26469706673582212208a45464c4d48e04ddc910b3c87727c500c658b2419ed2dd5a7b1e16ff033b06b64736f6c63430008150033",
  "immutableReferences": {},
  "source": "// SPDX-License-Identifier: MIT\npragma solidity ^0.8.0;\n\ninterface IBalancer {\n    function flashLoan(address recipient, uint256 amount, bytes calldata params) external;\n}\n\ninterface IExchange {\n    function swap(address from, address to, uint256 amount) external returns (uint256);\n}\n\ncontract Arbitrage {\n    address owner;\n    IBalancer public balancer;\n    IExchange public exchange;\n\n    constructor(address _balancer, address _exchange) {\n        owner = msg.sender;\n        balancer = IBalancer(_balancer);\n        exchange = IExchange(_exchange);\n    }\n\n    function executeTrade(address _from, address _to, uint256 _amount, uint256 _minProfit) external {\n        require(msg.sender == owner, \"Only owner can execute trades\");\n        bytes memory data = abi.encode(_from, _to, _amount, _minProfit);\n        try balancer.flashLoan(address(this), _amount, data) {\n            emit TradeExecuted(_from, _to, _amount, _minProfit);\n        } catch (bytes memory _err) {\n            emit TradeExecutionFailed(_from, _to, _amount, _minProfit, _err);\n        }\n    }\n\n    function onFlashLoan(address _from, address _to, uint256 _amount, uint256 _minProfit) external {\n        uint256 initialBalance = address(this).balance;\n        uint256 returnedAmount;\n        try exchange.swap(_from, _to, _amount) returns (uint256 _returnedAmount) {\n            returnedAmount = _returnedAmount;\n        } catch (bytes memory _err) {\n            revert(\"Swap failed\");\n        }\n        require(returnedAmount - _amount >= _minProfit, \"Profit threshold not met\");\n        uint256 finalBalance = address(this).balance;\n        require(finalBalance - initialBalance >= _minProfit, \"Profit threshold not met after trade\");\n        // Repay the flash loan here, including any additional fees required\n    }\n\n    // Fallback function to receive ETH when the swap is successful\n    receive() external payable {}\n\n    event TradeExecuted(address indexed from, address indexed to, uint256 amount, uint256 minProfit);\n    event TradeExecutionFailed(address indexed from, address indexed to, uint256 amount, uint256 minProfit, bytes error);\n}",
  "sourcePath": "/Users/ryangordon/Downloads/gpt-pilot/workspace/polybot/contracts/Arbitrage.sol",
  "compiler": {
    "name": "solc",
    "version": "0.8.21+commit.d9974bed.Emscripten.clang"
  },
  "schemaVersion": "3.4.16",
  "updatedAt": "2024-05-02T17:42:47.027Z",
  "devdoc": {
    "kind": "dev",
    "methods": {},
    "version": 1
  },
  "userdoc": {
    "kind": "user",
    "methods": {},
    "version": 1
  }
}